:100000000C942A000C9434000C9434000C943400AA
:100010000C9434000C9434000C9434000C94340090
:100020000C9434000C9434000C9434000C94340080
:100030000C9434000C9434000C9434000C94340070
:100040000C9434000C9434000C9434000C94340060
:100050000C94340011241FBECFE5D8E0DEBFCDBF25
:100060000E941F040C945B040C940000DF93CF9358
:10007000CDB7DEB782E460E040E00E94350182E463
:1000800061E040E00E943501CF91DF910895DF9358
:10009000CF93CDB7DEB782E460E00E943503CF9105
:1000A000DF910895DF93CF93CDB7DEB782E461E0AF
:1000B0000E943503CF91DF910895DF93CF93CDB7A1
:1000C000DEB781E460E041E00E94350181E461E057
:1000D00041E00E94350181E462E041E00E94350187
:1000E00081E463E041E00E943501CF91DF91089502
:1000F000DF93CF93CDB7DEB781E460E041E00E94AB
:10010000350281E461E040E00E94350281E462E072
:1001100041E00E94350281E463E040E00E94350244
:10012000CF91DF910895DF93CF93CDB7DEB781E410
:1001300060E040E00E94350281E461E041E00E941D
:10014000350281E462E040E00E94350281E463E030
:1001500041E00E943502CF91DF910895DF93CF9364
:10016000CDB7DEB781E460E040E00E94350281E473
:1001700061E040E00E94350281E462E041E00E94DB
:10018000350281E463E040E00E943502CF91DF91C7
:100190000895DF93CF93CDB7DEB781E460E041E00F
:1001A0000E94350281E461E040E00E94350281E472
:1001B00062E040E00E94350281E463E040E00E949A
:1001C0003502CF91DF910895DF93CF93CDB7DEB79E
:1001D00081E460E040E00E94350281E461E041E0BA
:1001E0000E94350281E462E040E00E94350281E431
:1001F00063E040E00E943502CF91DF910895DF93E4
:10020000CF93CDB7DEB781E460E040E00E943502D5
:1002100081E461E040E00E94350281E462E040E078
:100220000E94350281E463E041E00E943502CF91F3
:10023000DF910895DF93CF93CDB7DEB781E460E01F
:1002400040E00E94350281E461E040E00E94350216
:1002500081E462E040E00E94350281E463E040E036
:100260000E943502CF91DF910895DF93CF93CDB7F0
:10027000DEB72B970FB6F894DEBF0FBECDBF8983D4
:100280006A834B8389818134C1F58B81282F30E0CB
:100290003B872A878A859B850097D1F02A853B85F5
:1002A0002130310509F0D8C0AAE3B0E0EAE3F0E07C
:1002B0008081482F8A81282F30E081E090E0022E53
:1002C00002C0880F991F0A94E2F7842B8C93C4C054
:1002D000AAE3B0E0EAE3F0E08081482F8A81282F8A
:1002E00030E081E090E0022E02C0880F991F0A944E
:1002F000E2F7809584238C93AFC089818234C1F565
:100300008B81282F30E03987288788859985009749
:10031000D1F0288539852130310509F09DC0A7E34A
:10032000B0E0E7E3F0E08081482F8A81282F30E0B9
:1003300081E090E0022E02C0880F991F0A94E2F734
:10034000842B8C9389C0A7E3B0E0E7E3F0E08081E1
:10035000482F8A81282F30E081E090E0022E02C0F1
:10036000880F991F0A94E2F7809584238C9374C0B8
:1003700089818334C1F58B81282F30E03F832E8320
:100380008E819F810097D1F02E813F8121303105F0
:1003900009F062C0A4E3B0E0E4E3F0E08081482F1C
:1003A0008A81282F30E081E090E0022E02C0880F81
:1003B000991F0A94E2F7842B8C934EC0A4E3B0E01B
:1003C000E4E3F0E08081482F8A81282F30E081E04B
:1003D00090E0022E02C0880F991F0A94E2F78095E0
:1003E00084238C9339C089818434B1F58B81282F83
:1003F00030E03D832C838C819D810097C9F02C8156
:100400003D812130310541F5A1E3B0E0E1E3F0E0C9
:100410008081482F8A81282F30E081E090E0022EF1
:1004200002C0880F991F0A94E2F7842B8C9314C0A2
:10043000A1E3B0E0E1E3F0E08081482F8A81282F3A
:1004400030E081E090E0022E02C0880F991F0A94EC
:10045000E2F7809584238C932B960FB6F894DEBF39
:100460000FBECDBFCF91DF910895DF93CF93CDB76E
:10047000DEB72B970FB6F894DEBF0FBECDBF8983D2
:100480006A834B8389818134C1F58B81282F30E0C9
:100490003B872A878A859B850097D1F02A853B85F3
:1004A0002130310509F0D8C0ABE3B0E0EBE3F0E078
:1004B0008081482F8A81282F30E081E090E0022E51
:1004C00002C0880F991F0A94E2F7842B8C93C4C052
:1004D000ABE3B0E0EBE3F0E08081482F8A81282F86
:1004E00030E081E090E0022E02C0880F991F0A944C
:1004F000E2F7809584238C93AFC089818234C1F563
:100500008B81282F30E03987288788859985009747
:10051000D1F0288539852130310509F09DC0A8E347
:10052000B0E0E8E3F0E08081482F8A81282F30E0B6
:1005300081E090E0022E02C0880F991F0A94E2F732
:10054000842B8C9389C0A8E3B0E0E8E3F0E08081DD
:10055000482F8A81282F30E081E090E0022E02C0EF
:10056000880F991F0A94E2F7809584238C9374C0B6
:1005700089818334C1F58B81282F30E03F832E831E
:100580008E819F810097D1F02E813F8121303105EE
:1005900009F062C0A5E3B0E0E5E3F0E08081482F18
:1005A0008A81282F30E081E090E0022E02C0880F7F
:1005B000991F0A94E2F7842B8C934EC0A5E3B0E018
:1005C000E5E3F0E08081482F8A81282F30E081E048
:1005D00090E0022E02C0880F991F0A94E2F78095DE
:1005E00084238C9339C089818434B1F58B81282F81
:1005F00030E03D832C838C819D810097C9F02C8154
:100600003D812130310541F5A2E3B0E0E2E3F0E0C5
:100610008081482F8A81282F30E081E090E0022EEF
:1006200002C0880F991F0A94E2F7842B8C9314C0A0
:10063000A2E3B0E0E2E3F0E08081482F8A81282F36
:1006400030E081E090E0022E02C0880F991F0A94EA
:10065000E2F7809584238C932B960FB6F894DEBF37
:100660000FBECDBFCF91DF910895DF93CF9300D020
:1006700000D00F92CDB7DEB78A836B838A81282F93
:1006800030E03D832C834C815D814234510541F142
:100690008C819D818334910534F42C813D812134FA
:1006A000310561F052C04C815D814334510551F1F7
:1006B0008C819D8184349105B9F147C0E9E3F0E074
:1006C0008081282F30E08B81882F90E0A90102C023
:1006D000559547958A95E2F7CA018170898335C09F
:1006E000E6E3F0E08081282F30E08B81882F90E0D6
:1006F000A90102C0559547958A95E2F7CA01817014
:10070000898323C0E3E3F0E08081282F30E08B81F0
:10071000882F90E0A90102C0559547958A95E2F788
:10072000CA018170898311C0E0E3F0E08081282F45
:1007300030E08B81882F90E0A90102C05595479544
:100740008A95E2F7CA018170898389810F900F90A1
:100750000F900F900F90CF91DF910895DF93CF937B
:10076000CDB7DEB7A3E5B0E0E3E5F0E080818064DB
:100770008C93A3E5B0E0E3E5F0E0808188608C93A2
:10078000A3E5B0E0E3E5F0E080818E7F8C93A3E504
:10079000B0E0E3E5F0E0808182608C93A3E5B0E017
:1007A000E3E5F0E080818B7F8C93CF91DF9108951A
:1007B000DF93CF9300D00F92CDB7DEB789838981C5
:1007C000282F30E03B832A838A819B81009731F078
:1007D0002A813B812130310581F01DC0A3E5B0E0C5
:1007E000E3E5F0E0808180618C93A3E5B0E0E3E590
:1007F000F0E0808180628C930EC0A3E5B0E0E3E579
:10080000F0E080818F7E8C93A3E5B0E0E3E5F0E03B
:10081000808180628C930F900F900F90CF91DF9129
:100820000895DF93CF930F92CDB7DEB78983ECE5C0
:10083000F0E0898180830F90CF91DF910895DF935D
:10084000CF93CDB7DEB70E9436000E945D000E94B4
:10085000AE0380EC0E94110481E00E94D8030E9444
:100860005200882339F40E944700882319F40E941B
:100870007800F5CF0E945200813039F40E94470081
:10088000882319F40E94C900EACF0E9452008823ED
:1008900039F40E944700813019F40E94AE00DFCF86
:1008A0000E9452008130D9F60E9447008130B9F68B
:0A08B0000E941A01D4CFF894FFCF84
:00000001FF
